{
  "contractName": "Central",
  "abi": [
    {
      "inputs": [],
      "name": "createSmartContract",
      "outputs": [],
      "stateMutability": "nonpayable",
      "type": "function"
    },
    {
      "inputs": [
        {
          "internalType": "address",
          "name": "_walletAddress",
          "type": "address"
        }
      ],
      "name": "getCompanySmartContractAddress",
      "outputs": [
        {
          "internalType": "address",
          "name": "",
          "type": "address"
        }
      ],
      "stateMutability": "view",
      "type": "function",
      "constant": true
    },
    {
      "inputs": [
        {
          "internalType": "address",
          "name": "_ownerAddress",
          "type": "address"
        },
        {
          "internalType": "address",
          "name": "_contractAddress",
          "type": "address"
        },
        {
          "internalType": "uint256[]",
          "name": "_products",
          "type": "uint256[]"
        }
      ],
      "name": "addproduct",
      "outputs": [
        {
          "internalType": "string",
          "name": "",
          "type": "string"
        }
      ],
      "stateMutability": "nonpayable",
      "type": "function"
    },
    {
      "inputs": [
        {
          "internalType": "address",
          "name": "_contractAddress",
          "type": "address"
        },
        {
          "internalType": "uint256",
          "name": "_productHashCode",
          "type": "uint256"
        }
      ],
      "name": "checkProduct",
      "outputs": [
        {
          "internalType": "string",
          "name": "",
          "type": "string"
        }
      ],
      "stateMutability": "view",
      "type": "function",
      "constant": true
    },
    {
      "inputs": [
        {
          "internalType": "address",
          "name": "_val",
          "type": "address"
        }
      ],
      "name": "retrieve",
      "outputs": [
        {
          "internalType": "address",
          "name": "",
          "type": "address"
        }
      ],
      "stateMutability": "pure",
      "type": "function",
      "constant": true
    }
  ],
  "bytecode": "0x608060405234801561001057600080fd5b506109e6806100206000396000f3fe608060405234801561001057600080fd5b50600436106100575760003560e01c80630a79309b1461005c57806325a0f0d0146100855780633e0920f6146100985780634d581a37146100b85780639b7ff3eb146100c2575b600080fd5b61006f61006a3660046102d3565b6100d5565b60405161007c9190610470565b60405180910390f35b61006f6100933660046102d3565b6100dc565b6100ab6100a63660046102ed565b6100fa565b60405161007c91906104da565b6100c0610189565b005b6100ab6100d03660046103b7565b610225565b805b919050565b6001600160a01b039081166000908152600160205260409020541690565b60405163082fd8eb60e21b81526060906001600160a01b038416906320bf63ac9061012b9087908690600401610484565b600060405180830381600087803b15801561014557600080fd5b505af1158015610159573d6000803e3d6000fd5b505050506040513d6000823e601f3d908101601f1916820160405261018191908101906103e0565b949350505050565b600033604051610198906102af565b6101a29190610470565b604051809103906000f0801580156101be573d6000803e3d6000fd5b5060008054600181810183557f290decd9548b62a8d60345a988386fc84ba6bc95484008f6362f93160ef3e56390910180546001600160a01b039094166001600160a01b031994851681179091553383526020919091526040909120805490921617905550565b604051632927423160e11b81526060906001600160a01b0384169063524e84629061025490859060040161050d565b60006040518083038186803b15801561026c57600080fd5b505afa158015610280573d6000803e3d6000fd5b505050506040513d6000823e601f3d908101601f191682016040526102a891908101906103e0565b9392505050565b61042a8061058783390190565b80356001600160a01b03811681146100d757600080fd5b6000602082840312156102e4578081fd5b6102a8826102bc565b600080600060608486031215610301578182fd5b61030a846102bc565b925060206103198186016102bc565b9250604085013567ffffffffffffffff80821115610335578384fd5b818701915087601f830112610348578384fd5b81358181111561035a5761035a610570565b838102915061036a848301610516565b8181528481019084860184860187018c1015610384578788fd5b8795505b838610156103a6578035835260019590950194918601918601610388565b508096505050505050509250925092565b600080604083850312156103c9578182fd5b6103d2836102bc565b946020939093013593505050565b6000602082840312156103f1578081fd5b815167ffffffffffffffff80821115610408578283fd5b818401915084601f83011261041b578283fd5b81518181111561042d5761042d610570565b610440601f8201601f1916602001610516565b9150808252856020828501011115610456578384fd5b610467816020840160208601610540565b50949350505050565b6001600160a01b0391909116815260200190565b6001600160a01b038316815260406020808301829052835191830182905260009184820191906060850190845b818110156104cd578451835293830193918301916001016104b1565b5090979650505050505050565b60006020825282518060208401526104f9816040850160208701610540565b601f01601f19169190910160400192915050565b90815260200190565b60405181810167ffffffffffffffff8111828210171561053857610538610570565b604052919050565b60005b8381101561055b578181015183820152602001610543565b8381111561056a576000848401525b50505050565b634e487b7160e01b600052604160045260246000fdfe608060405234801561001057600080fd5b5060405161042a38038061042a83398101604081905261002f91610054565b600280546001600160a01b0319166001600160a01b0392909216919091179055610082565b600060208284031215610065578081fd5b81516001600160a01b038116811461007b578182fd5b9392505050565b610399806100916000396000f3fe608060405234801561001057600080fd5b50600436106100365760003560e01c806320bf63ac1461003b578063524e846214610064575b600080fd5b61004e6100493660046101e1565b610077565b60405161005b91906102d3565b60405180910390f35b61004e6100723660046102bb565b610174565b6002546060906001600160a01b0384811691161461009457600080fd5b60005b82518110156101475760008382815181106100c257634e487b7160e01b600052603260045260246000fd5b6020908102919091018101518254600181810185556000948552928420015584519091829186908590811061010757634e487b7160e01b600052603260045260246000fd5b6020026020010151815260200190815260200160002060006101000a81548160ff021916908315150217905550808061013f90610326565b915050610097565b505060408051808201909152600e81526d141c9bd91d58dd1cc8185919195960921b602082015292915050565b60008181526001602052604090205460609060ff16156101b8575060408051808201909152600d81526c105d5d1a195b9d1a58d85d1959609a1b60208201526101dc565b5060408051808201909152600b81526a10dbdd5b9d195c99995a5d60aa1b60208201525b919050565b600080604083850312156101f3578182fd5b82356001600160a01b0381168114610209578283fd5b915060208381013567ffffffffffffffff80821115610226578384fd5b818601915086601f830112610239578384fd5b81358181111561024b5761024b61034d565b8381026040518582820101818110858211171561026a5761026a61034d565b604052828152858101935084860182860187018b1015610288578788fd5b8795505b838610156102aa57803585526001959095019493860193860161028c565b508096505050505050509250929050565b6000602082840312156102cc578081fd5b5035919050565b6000602080835283518082850152825b818110156102ff578581018301518582016040015282016102e3565b818111156103105783604083870101525b50601f01601f1916929092016040019392505050565b600060001982141561034657634e487b7160e01b81526011600452602481fd5b5060010190565b634e487b7160e01b600052604160045260246000fdfea2646970667358221220a73292a5da9dc13c5b25060e923c489ce96d79fd0a628ba320f4ebf14d3948a264736f6c63430008000033a2646970667358221220e4661e955185c57b8679814d516b847b78cf0e599ce5066ab50a717a4d08baf664736f6c63430008000033",
  "immutableReferences": {},
  "source": "//SPDX-License-Identifier: MIT\n\npragma solidity ^0.8.0;\n\nimport \"./Company.sol\";\n\ncontract Central {\n    address[] walletAddresses;\n\n    mapping(address => address) walletAddressToSmartContractAddress;\n\n    function createSmartContract() public {\n        Company companyContract = new Company(msg.sender);\n        walletAddresses.push(address(companyContract));\n        walletAddressToSmartContractAddress[msg.sender] = address(\n            companyContract\n        );\n    }\n\n    function getCompanySmartContractAddress(address _walletAddress)\n        public\n        view\n        returns (address)\n    {\n        return walletAddressToSmartContractAddress[_walletAddress];\n    }\n\n    function addproduct(\n        address _ownerAddress,\n        address _contractAddress,\n        uint256[] memory _products\n    ) public returns (string memory) {\n        return Company(_contractAddress).addProducts(_ownerAddress, _products);\n    }\n\n    function checkProduct(address _contractAddress, uint256 _productHashCode)\n        public\n        view\n        returns (string memory)\n    {\n        return Company(_contractAddress).verifyProduct(_productHashCode);\n    }\n\n    function retrieve(address _val) public pure returns (address) {\n        return _val;\n    }\n}\n",
  "sourcePath": "C:\\Users\\nadee_zffrykf\\Desktop\\Projects\\Fake Product Identification\\Contract\\Central.sol",
  "compiler": {
    "name": "solc",
    "version": "0.8.0+commit.c7dfd78e.Emscripten.clang"
  },
  "schemaVersion": "3.4.16",
  "updatedAt": "2026-02-20T21:09:33.170Z",
  "networkType": "ethereum",
  "devdoc": {
    "kind": "dev",
    "methods": {},
    "version": 1
  },
  "userdoc": {
    "kind": "user",
    "methods": {},
    "version": 1
  }
}