{
  "contractName": "Company",
  "abi": [
    {
      "inputs": [
        {
          "internalType": "address",
          "name": "_owner",
          "type": "address"
        }
      ],
      "stateMutability": "nonpayable",
      "type": "constructor"
    },
    {
      "inputs": [
        {
          "internalType": "address",
          "name": "_ownerAddress",
          "type": "address"
        },
        {
          "internalType": "uint256[]",
          "name": "_products",
          "type": "uint256[]"
        }
      ],
      "name": "addProducts",
      "outputs": [
        {
          "internalType": "string",
          "name": "",
          "type": "string"
        }
      ],
      "stateMutability": "nonpayable",
      "type": "function"
    },
    {
      "inputs": [
        {
          "internalType": "uint256",
          "name": "_hashcode",
          "type": "uint256"
        }
      ],
      "name": "verifyProduct",
      "outputs": [
        {
          "internalType": "string",
          "name": "",
          "type": "string"
        }
      ],
      "stateMutability": "view",
      "type": "function"
    }
  ],
  "bytecode": "0x608060405234801561001057600080fd5b5060405161042a38038061042a83398101604081905261002f91610054565b600280546001600160a01b0319166001600160a01b0392909216919091179055610082565b600060208284031215610065578081fd5b81516001600160a01b038116811461007b578182fd5b9392505050565b610399806100916000396000f3fe608060405234801561001057600080fd5b50600436106100365760003560e01c806320bf63ac1461003b578063524e846214610064575b600080fd5b61004e6100493660046101e1565b610077565b60405161005b91906102d3565b60405180910390f35b61004e6100723660046102bb565b610174565b6002546060906001600160a01b0384811691161461009457600080fd5b60005b82518110156101475760008382815181106100c257634e487b7160e01b600052603260045260246000fd5b6020908102919091018101518254600181810185556000948552928420015584519091829186908590811061010757634e487b7160e01b600052603260045260246000fd5b6020026020010151815260200190815260200160002060006101000a81548160ff021916908315150217905550808061013f90610326565b915050610097565b505060408051808201909152600e81526d141c9bd91d58dd1cc8185919195960921b602082015292915050565b60008181526001602052604090205460609060ff16156101b8575060408051808201909152600d81526c105d5d1a195b9d1a58d85d1959609a1b60208201526101dc565b5060408051808201909152600b81526a10dbdd5b9d195c99995a5d60aa1b60208201525b919050565b600080604083850312156101f3578182fd5b82356001600160a01b0381168114610209578283fd5b915060208381013567ffffffffffffffff80821115610226578384fd5b818601915086601f830112610239578384fd5b81358181111561024b5761024b61034d565b8381026040518582820101818110858211171561026a5761026a61034d565b604052828152858101935084860182860187018b1015610288578788fd5b8795505b838610156102aa57803585526001959095019493860193860161028c565b508096505050505050509250929050565b6000602082840312156102cc578081fd5b5035919050565b6000602080835283518082850152825b818110156102ff578581018301518582016040015282016102e3565b818111156103105783604083870101525b50601f01601f1916929092016040019392505050565b600060001982141561034657634e487b7160e01b81526011600452602481fd5b5060010190565b634e487b7160e01b600052604160045260246000fdfea2646970667358221220a73292a5da9dc13c5b25060e923c489ce96d79fd0a628ba320f4ebf14d3948a264736f6c63430008000033",
  "immutableReferences": {},
  "source": "//SPDX-License-Identifier: MIT\n\npragma solidity ^0.8.0;\n\ncontract Company {\n    uint256[] Products;\n\n    mapping(uint256 => bool) hashcodeToTrue;\n\n    address owner;\n\n    constructor(address _owner) {\n        owner = _owner;\n    }\n\n    modifier onlyOwner() {\n        require(msg.sender == owner);\n        _;\n    }\n\n    function addProducts(address _ownerAddress, uint256[] memory _products)\n        public\n        returns (string memory)\n    {\n        require(_ownerAddress == owner);\n        uint256 i;\n\n        for (i; i < _products.length; i++) {\n            Products.push(_products[i]);\n            hashcodeToTrue[_products[i]] = true;\n        }\n\n        return \"Products added\";\n    }\n\n    function verifyProduct(uint256 _hashcode)\n        public\n        view\n        returns (string memory)\n    {\n        if (hashcodeToTrue[_hashcode]) {\n            return \"Authenticated\";\n        } else {\n            return \"Counterfeit\";\n        }\n    }\n}\n",
  "sourcePath": "C:\\Users\\nadee_zffrykf\\Downloads\\Fake-Product-Identification-Using-Blockchain-master\\Fake-Product-Identification-Using-Blockchain-master\\Fake Product Identification Using Blockchain\\Contract\\Company.sol",
  "compiler": {
    "name": "solc",
    "version": "0.8.0+commit.c7dfd78e.Emscripten.clang"
  },
  "schemaVersion": "3.4.16",
  "updatedAt": "2026-02-20T16:56:15.234Z",
  "devdoc": {
    "kind": "dev",
    "methods": {},
    "version": 1
  },
  "userdoc": {
    "kind": "user",
    "methods": {},
    "version": 1
  }
}